:100000000C9446000C9463000C9463000C94630001
:100010000C9463000C9463000C9463000C946300D4
:100020000C9463000C9463000C9463000C946300C4
:100030000C9463000C9463000C9463000C946300B4
:100040000C9463000C9463000C9463000C946300A4
:100050000C9463000C9463000C9463000C94630094
:100060000C9463000C9463000C9463000C94630084
:100070000C9463000C9463000C9463000C94630074
:100080000C9463000C9463000C94630011241FBE55
:10009000CFEFD0E1DEBFCDBF12E0A0E0B1E0ECE8F1
:1000A000FBE000E00BBF02C007900D92AC34B1073B
:1000B000D9F712E0ACE4B2E001C01D92AC34B10754
:1000C000E1F70C9465000C940000C0EFD0E1DEBFB6
:1000D000CDBF8E01095F1F4F41E06AE1C8010E9458
:1000E000B803B8016E010894C11CD11CC6010E945E
:1000F0003E0460E071E0C8010E94C2008AE2E82E7E
:1001000081E0F82E8B819C81AD81BE810196A11D7D
:10011000B11D8B839C83AD83BE838B819C81AD811C
:10012000BE8180549244AF40B04060F31B821C8279
:100130001D821E82B701C8010E94C200B6010E9442
:10014000B00464E070E00E94F500DCCF08950895EB
:10015000FC018FE391E0918380838AE0828308959C
:10016000FC018FE391E0918380838AE0828308958C
:1001700081E090E0089580E090E0089580E090E0D4
:10018000089508950F931F93CF93DF938C01EB0194
:100190006881662361F02196D801ED91FC9102807F
:1001A000F381E02DC801099568816623A1F7C80194
:1001B000DF91CF911F910F910895CF93DF93EC01C1
:1001C000662341F0E881F9810280F381E02D64E546
:1001D000099507C0E881F9810280F381E02D66E48A
:1001E0000995CE01DF91CF910895CF93DF93EC0174
:1001F0006230710559F1633071054CF0643071055E
:10020000E1F0643071057CF480E18A8321C06115DE
:10021000710531F061307105D9F488E08A8318C026
:1002200082E08A8315C06530710591F4E881F98117
:100230000284F385E02D09950BC0E881F9810480E3
:10024000F581E02D68E371E0099502C08AE08A83B8
:10025000CE01DF91CF910895AF92BF92CF92DF92FE
:10026000EF92FF920F931F93CF93DF93CDB7DEB73B
:1002700061970FB6F894DEBF0FBECDBF7C015B0166
:10028000FC014281423091F055278E010F5F1F4FD4
:10029000B801C5010E946A05D701ED91FC91048067
:1002A000F581E02DB801C701099525C0C12C90E862
:1002B000D92E00E010E010C0D701ED91FC91028032
:1002C000F381E02D61E3C7010995D694C7940F5FD0
:1002D0001F4F0031110579F0C6018A219B21892B1E
:1002E00059F7D701ED91FC910280F381E02D60E395
:1002F000C7010995EACFC70161960FB6F894DEBF32
:100300000FBECDBFDF91CF911F910F91FF90EF9066
:10031000DF90CF90BF90AF900895AF92BF92CF92F1
:10032000DF92EF92FF920F931F93CF93DF93CDB79E
:10033000DEB761970FB6F894DEBF0FBECDBF7C016C
:100340005B01FC014281423091F055278E010F5F25
:100350001F4FB801C5010E946A05D701ED91FC91BC
:100360000480F581E02DB801C701099525C0C12C95
:1003700030E8D32E00E010E010C0D701ED91FC91E1
:100380000280F381E02D61E3C7010995D694C794FB
:100390000F5F1F4F0031110579F0C6018A219B21A3
:1003A000892B59F7D701ED91FC910280F381E02D63
:1003B00060E3C7010995EACFC70161960FB6F894CB
:1003C000DEBF0FBECDBFDF91CF911F910F91FF9088
:1003D000EF90DF90CF90BF90AF900895AF92BF9213
:1003E000DF92EF92FF920F931F93CF93DF93CDB7DE
:1003F000DEB72A970FB6F894DEBF0FBECDBF7C01E3
:10040000862FF70142814230A1F055278E010F5F00
:100410001F4FB801992787FD90950E946A05D70163
:10042000ED91FC910480F581E02DB801C70109959B
:1004300028C0A62EBB24A7FCB09440E8D42E00E030
:1004400010E00FC0D701ED91FC910280F381E02D07
:1004500061E3C7010995D6940F5F1F4F083011055E
:1004600081F08D2D99278A219B21892B59F7D7015E
:10047000ED91FC910280F381E02D60E3C7010995C5
:10048000EACFC7012A960FB6F894DEBF0FBECDBFE4
:10049000DF91CF911F910F91FF90EF90DF90BF9070
:1004A000AF900895AF92BF92DF92EF92FF920F93B9
:1004B0001F93CF93DF93CDB7DEB729970FB6F8948C
:1004C000DEBF0FBECDBF7C01862FF70142814230D7
:1004D00091F055278E010F5F1F4FB80199270E9499
:1004E0006A05D701ED91FC910480F581E02DB801FA
:1004F000C701099526C0A62EBB2450E8D52E00E0E2
:1005000010E00FC0D701ED91FC910280F381E02D46
:1005100061E3C7010995D6940F5F1F4F083011059D
:1005200081F08D2D99278A219B21892B59F7D7019D
:10053000ED91FC910280F381E02D60E3C701099504
:10054000EACFC70129960FB6F894DEBF0FBECDBF24
:10055000DF91CF911F910F91FF90EF90DF90BF90AF
:10056000AF900895AF92BF92CF92DF92EF92FF9239
:100570000F931F93CF93DF93CDB7DEB7A2970FB63C
:10058000F894DEBF0FBECDBF5C016A017B01FC01A8
:100590002281223099F033278E010F5F1F4FA8016F
:1005A000C701B6010E941105D501ED91FC910480AF
:1005B000F581E02DB801C50109950CC06F2D0E9491
:1005C00052026E2D0E9452026D2D0E9452026C2D1D
:1005D0000E945202C501A2960FB6F894DEBF0FBE6C
:1005E000CDBFDF91CF911F910F91FF90EF90DF90E2
:1005F000CF90BF90AF900895AF92BF92CF92DF920D
:10060000EF92FF920F931F93CF93DF93CDB7DEB797
:10061000A1970FB6F894DEBF0FBECDBF5C016A0193
:100620007B01FC012281223099F033278E010F5F7C
:100630001F4FA801C701B6010E944505D501ED91E4
:10064000FC910480F581E02DB801C50109950CC02D
:100650006F2D0E9452026E2D0E9452026D2D0E943B
:1006600052026C2D0E945202C501A1960FB6F89459
:10067000DEBF0FBECDBFDF91CF911F910F91FF90D5
:10068000EF90DF90CF90BF90AF900895CF93DF931E
:10069000EC01ED81FE818081992796958795929551
:1006A00082958F7089279F70892781709070DF9164
:1006B000CF910895CF93DF93DC01EC01ED81FE81B2
:1006C000808185FD0CC020E030E006C02F5F3F4FE9
:1006D0008EE42132380751F0808185FFF7CFED019C
:1006E000EB81FC81608381E090E002C080E090E0DB
:1006F000DF91CF9108950F931F93CF93DF938C01D8
:10070000EB016881662361F02196D801ED91FC919F
:100710000280F381E02DC801099568816623A1F765
:10072000DF91CF911F910F910895CF93DF93DC015B
:10073000EC01ED81FE81808187FFFDCFED01EB8132
:10074000FC818081992787FD9095DF91CF91089555
:10075000CF93DF93EC01ED81FE818081992787FDA6
:1007600090958827990F881F9927DF91CF91089539
:100770000F931F93CF93DF93EC01062F142F0E944A
:10078000A8008FE491E0998388831123A9F48CE277
:1007900090E09C838B838BE290E09E838D838AE242
:1007A00090E098878F8388E18AB986E880939500E6
:1007B0001092900009B916C08CE990E09C838B835D
:1007C0008BE990E09E838D838AE990E098878F8300
:1007D00088E180939A0086E880939D0010929800AB
:1007E00000939900EB81FC8180818081DF91CF9122
:1007F0001F910F9108950F931F93CF93DF93EC01F7
:10080000062F142F0E94A8008FE491E0998388831B
:100810001123A9F48CE290E09C838B838BE290E01F
:100820009E838D838AE290E098878F8388E18AB9DE
:1008300086E8809395001092900009B916C08CE963
:1008400090E09C838B838BE990E09E838D838AE983
:1008500090E098878F8388E180939A0086E8809360
:100860009D001092980000939900EB81FC8180819B
:100870008081DF91CF911F910F910895FC01CB01F1
:10088000718360836BE571E00E94C20064E070E0F8
:100890000E94F50017B884E886B90895FC01CB01E1
:1008A000718360836BE571E00E94C20064E070E0D8
:1008B0000E94F50017B884E886B90895EF92FF9278
:1008C0001F93CF93DF93EC01162F68E771E08881C7
:1008D00099810E94C20064E070E00E94F500183027
:1008E00068F487B1812B87B9369A369B10C060E0D7
:1008F00070E06F5F7F4F3699FCCF0BC065E971E008
:10090000888199810E94C200369A3699F0CF60E0C2
:1009100070E0888199810E942C0184B1E82E15B184
:10092000F12E63E070E0888199810E94F50065EB0B
:1009300071E00E94C2006E2D0E94EE016EEB71E02C
:100940000E94C200612F0E94EE0164E070E00E94EC
:10095000F500C701DF91CF911F91FF90EF900895AF
:100960006F927F928F929F92AF92BF92CF92DF92BF
:10097000EF92FF920F931F933C018B0160E0C8013F
:100980000E945E047C0161E0C8010E945E046C016B
:1009900062E0C8010E945E045C0163E0C8010E943D
:1009A0005E044C0106B117B167EC71E0C3010E940F
:1009B000C200612F0E9452026CEE71E00E94C200E0
:1009C000602F0E94520267EF71E00E94C200B701DF
:1009D0000E948D0161E272E00E94C200B6010E9495
:1009E0008D016FE272E00E94C200B5010E948D018C
:1009F0006DE372E00E94C200B4010E948D0164E0C8
:100A000070E00E94F500C3011F910F91FF90EF90DD
:100A1000DF90CF90BF90AF909F908F907F906F901E
:100A20000895FA01CF93FF93EF93223044F12532DA
:100A300034F5C22FE894CA3049F497FB3EF4909500
:100A40008095709561957F4F8F4F9F4F2C2F332747
:100A500044275527FF93EF930E94A405EF91FF9140
:100A6000605D6A330CF0695D6193B901CA01605041
:100A700070408040904051F716F4CDE2C19310824F
:100A80008F919F91CF910C948005FA01CF93FF93A2
:100A9000EF932230CCF02532BCF4C22F2C2F332719
:100AA00044275527FF93EF930E94A405EF91FF91F0
:100AB000605D6A330CF0695D6193B901CA016050F1
:100AC00070408040904051F710828F919F91CF915C
:100AD0000C948005FB019F01423074F0453264F4B0
:100AE000642F77270E949005805D8A330CF0895D22
:100AF0008193CB010097A1F71082C9010C94800566
:100B0000DC01FC0101900020E9F73297AE17BF0726
:100B100030F47C916081708331976D93F7CF0895A5
:100B2000AA1BBB1B51E107C0AA1FBB1FA617B70713
:100B300010F0A61BB70B881F991F5A95A9F780952F
:100B40009095BC01CD010895A1E21A2EAA1BBB1BF2
:100B5000FD010DC0AA1FBB1FEE1FFF1FA217B30789
:100B6000E407F50720F0A21BB30BE40BF50B661F9F
:100B7000771F881F991F1A9469F760957095809563
:0C0B800090959B01AC01BD01CF010895D0
:100B8C000D0A416E616C6F6720746F204469676950
:100B9C0074616C20546573742050726F6772616D50
:100BAC002076302E3030320D0A00412F44207374E1
:100BBC00617475733A0A0D000D0A0000000000B84C
:100BCC0000A600A700BE00BB00C10000000000464C
:100BDC00035A037B03A8039503C10053657474691E
:100BEC006E672075702041565220412F4420636F50
:100BFC006E7665727465720052756E6E696E6720E2
:100C0C006176725F6164633A3A726561645F6F6EBC
:100C1C0063652829004368616E6E656C206D757381
:100C2C0074206265206265747765656E2030206182
:100C3C006E642037000A0D4144434C3A20000A0DE3
:100C4C00414443483A2000412F4420726567697340
:100C5C0074657273206F6620696E74657265737447
:100C6C003A200A0D41444D55583A20000A0D414492
:100C7C00435352413A20000A0D43757272656E74EB
:100C8C002076616C7565206F66206368616E6E6599
:100C9C006C733A0A0D4368616E6E656C20303A20B5
:100CAC00000A0D4368616E6E656C20313A20000AB3
:100CBC000D4368616E6E656C20323A20000A0D435C
:0C0CCC0068616E6E656C20333A200000F9
:00000001FF
